{
  "_format": "hh-sol-artifact-1",
  "contractName": "AIVerification",
  "sourceName": "contracts/AIVerification.sol",
  "abi": [
    {
      "inputs": [
        {
          "internalType": "address",
          "name": "_documentRegistryAddress",
          "type": "address"
        }
      ],
      "stateMutability": "nonpayable",
      "type": "constructor"
    },
    {
      "inputs": [],
      "name": "AccessControlBadConfirmation",
      "type": "error"
    },
    {
      "inputs": [
        {
          "internalType": "address",
          "name": "account",
          "type": "address"
        },
        {
          "internalType": "bytes32",
          "name": "neededRole",
          "type": "bytes32"
        }
      ],
      "name": "AccessControlUnauthorizedAccount",
      "type": "error"
    },
    {
      "anonymous": false,
      "inputs": [
        {
          "indexed": true,
          "internalType": "bytes32",
          "name": "role",
          "type": "bytes32"
        },
        {
          "indexed": true,
          "internalType": "bytes32",
          "name": "previousAdminRole",
          "type": "bytes32"
        },
        {
          "indexed": true,
          "internalType": "bytes32",
          "name": "newAdminRole",
          "type": "bytes32"
        }
      ],
      "name": "RoleAdminChanged",
      "type": "event"
    },
    {
      "anonymous": false,
      "inputs": [
        {
          "indexed": true,
          "internalType": "bytes32",
          "name": "role",
          "type": "bytes32"
        },
        {
          "indexed": true,
          "internalType": "address",
          "name": "account",
          "type": "address"
        },
        {
          "indexed": true,
          "internalType": "address",
          "name": "sender",
          "type": "address"
        }
      ],
      "name": "RoleGranted",
      "type": "event"
    },
    {
      "anonymous": false,
      "inputs": [
        {
          "indexed": true,
          "internalType": "bytes32",
          "name": "role",
          "type": "bytes32"
        },
        {
          "indexed": true,
          "internalType": "address",
          "name": "account",
          "type": "address"
        },
        {
          "indexed": true,
          "internalType": "address",
          "name": "sender",
          "type": "address"
        }
      ],
      "name": "RoleRevoked",
      "type": "event"
    },
    {
      "anonymous": false,
      "inputs": [
        {
          "indexed": true,
          "internalType": "bytes32",
          "name": "docId",
          "type": "bytes32"
        },
        {
          "indexed": false,
          "internalType": "bool",
          "name": "isVerified",
          "type": "bool"
        },
        {
          "indexed": false,
          "internalType": "uint256",
          "name": "timestamp",
          "type": "uint256"
        }
      ],
      "name": "VerificationSubmitted",
      "type": "event"
    },
    {
      "inputs": [],
      "name": "DEFAULT_ADMIN_ROLE",
      "outputs": [
        {
          "internalType": "bytes32",
          "name": "",
          "type": "bytes32"
        }
      ],
      "stateMutability": "view",
      "type": "function"
    },
    {
      "inputs": [],
      "name": "ORACLE_ROLE",
      "outputs": [
        {
          "internalType": "bytes32",
          "name": "",
          "type": "bytes32"
        }
      ],
      "stateMutability": "view",
      "type": "function"
    },
    {
      "inputs": [
        {
          "internalType": "address",
          "name": "_oracle",
          "type": "address"
        }
      ],
      "name": "assignOracle",
      "outputs": [],
      "stateMutability": "nonpayable",
      "type": "function"
    },
    {
      "inputs": [
        {
          "internalType": "bytes32",
          "name": "role",
          "type": "bytes32"
        }
      ],
      "name": "getRoleAdmin",
      "outputs": [
        {
          "internalType": "bytes32",
          "name": "",
          "type": "bytes32"
        }
      ],
      "stateMutability": "view",
      "type": "function"
    },
    {
      "inputs": [
        {
          "internalType": "bytes32",
          "name": "_docId",
          "type": "bytes32"
        }
      ],
      "name": "getVerificationResult",
      "outputs": [
        {
          "components": [
            {
              "internalType": "bytes32",
              "name": "docId",
              "type": "bytes32"
            },
            {
              "internalType": "bool",
              "name": "isVerified",
              "type": "bool"
            },
            {
              "internalType": "uint256",
              "name": "timestamp",
              "type": "uint256"
            }
          ],
          "internalType": "struct AIVerification.VerificationResult",
          "name": "",
          "type": "tuple"
        }
      ],
      "stateMutability": "view",
      "type": "function"
    },
    {
      "inputs": [
        {
          "internalType": "bytes32",
          "name": "role",
          "type": "bytes32"
        },
        {
          "internalType": "address",
          "name": "account",
          "type": "address"
        }
      ],
      "name": "grantRole",
      "outputs": [],
      "stateMutability": "nonpayable",
      "type": "function"
    },
    {
      "inputs": [
        {
          "internalType": "bytes32",
          "name": "role",
          "type": "bytes32"
        },
        {
          "internalType": "address",
          "name": "account",
          "type": "address"
        }
      ],
      "name": "hasRole",
      "outputs": [
        {
          "internalType": "bool",
          "name": "",
          "type": "bool"
        }
      ],
      "stateMutability": "view",
      "type": "function"
    },
    {
      "inputs": [
        {
          "internalType": "bytes32",
          "name": "role",
          "type": "bytes32"
        },
        {
          "internalType": "address",
          "name": "callerConfirmation",
          "type": "address"
        }
      ],
      "name": "renounceRole",
      "outputs": [],
      "stateMutability": "nonpayable",
      "type": "function"
    },
    {
      "inputs": [
        {
          "internalType": "bytes32",
          "name": "role",
          "type": "bytes32"
        },
        {
          "internalType": "address",
          "name": "account",
          "type": "address"
        }
      ],
      "name": "revokeRole",
      "outputs": [],
      "stateMutability": "nonpayable",
      "type": "function"
    },
    {
      "inputs": [
        {
          "internalType": "bytes32",
          "name": "_docId",
          "type": "bytes32"
        },
        {
          "internalType": "bool",
          "name": "_isVerified",
          "type": "bool"
        }
      ],
      "name": "submitVerificationResult",
      "outputs": [],
      "stateMutability": "nonpayable",
      "type": "function"
    },
    {
      "inputs": [
        {
          "internalType": "bytes4",
          "name": "interfaceId",
          "type": "bytes4"
        }
      ],
      "name": "supportsInterface",
      "outputs": [
        {
          "internalType": "bool",
          "name": "",
          "type": "bool"
        }
      ],
      "stateMutability": "view",
      "type": "function"
    },
    {
      "inputs": [
        {
          "internalType": "bytes32",
          "name": "",
          "type": "bytes32"
        }
      ],
      "name": "verificationResults",
      "outputs": [
        {
          "internalType": "bytes32",
          "name": "docId",
          "type": "bytes32"
        },
        {
          "internalType": "bool",
          "name": "isVerified",
          "type": "bool"
        },
        {
          "internalType": "uint256",
          "name": "timestamp",
          "type": "uint256"
        }
      ],
      "stateMutability": "view",
      "type": "function"
    }
  ],
  "bytecode": "0x60806040523480156200001157600080fd5b50604051620010ef380380620010ef833981810160405281019062000037919062000274565b6200004c6000801b336200009560201b60201c565b5080600160006101000a81548173ffffffffffffffffffffffffffffffffffffffff021916908373ffffffffffffffffffffffffffffffffffffffff16021790555050620002a6565b6000620000a983836200019860201b60201c565b6200018d57600160008085815260200190815260200160002060000160008473ffffffffffffffffffffffffffffffffffffffff1673ffffffffffffffffffffffffffffffffffffffff16815260200190815260200160002060006101000a81548160ff021916908315150217905550620001296200020260201b60201c565b73ffffffffffffffffffffffffffffffffffffffff168273ffffffffffffffffffffffffffffffffffffffff16847f2f8788117e7eff1d82e926ec794901d17c78024a50270940304540a733656f0d60405160405180910390a46001905062000192565b600090505b92915050565b600080600084815260200190815260200160002060000160008373ffffffffffffffffffffffffffffffffffffffff1673ffffffffffffffffffffffffffffffffffffffff16815260200190815260200160002060009054906101000a900460ff16905092915050565b600033905090565b600080fd5b600073ffffffffffffffffffffffffffffffffffffffff82169050919050565b60006200023c826200020f565b9050919050565b6200024e816200022f565b81146200025a57600080fd5b50565b6000815190506200026e8162000243565b92915050565b6000602082840312156200028d576200028c6200020a565b5b60006200029d848285016200025d565b91505092915050565b610e3980620002b66000396000f3fe608060405234801561001057600080fd5b50600436106100b45760003560e01c80637e5d70a0116100715780637e5d70a01461019f57806391d14854146101d1578063a0208ec814610201578063a217fddf1461021d578063d547741f1461023b578063f2ab4d6d14610257576100b4565b806301ffc9a7146100b957806307e2cea5146100e9578063248a9ca3146101075780632f2ff15d1461013757806336568abe1461015357806336beb6971461016f575b600080fd5b6100d360048036038101906100ce91906109b8565b610273565b6040516100e09190610a00565b60405180910390f35b6100f16102ed565b6040516100fe9190610a34565b60405180910390f35b610121600480360381019061011c9190610a7b565b610311565b60405161012e9190610a34565b60405180910390f35b610151600480360381019061014c9190610b06565b610330565b005b61016d60048036038101906101689190610b06565b610352565b005b61018960048036038101906101849190610a7b565b6103cd565b6040516101969190610bbf565b60405180910390f35b6101b960048036038101906101b49190610a7b565b610429565b6040516101c893929190610be9565b60405180910390f35b6101eb60048036038101906101e69190610b06565b610460565b6040516101f89190610a00565b60405180910390f35b61021b60048036038101906102169190610c20565b6104ca565b005b610225610544565b6040516102329190610a34565b60405180910390f35b61025560048036038101906102509190610b06565b61054b565b005b610271600480360381019061026c9190610c79565b61056d565b005b60007f7965db0b000000000000000000000000000000000000000000000000000000007bffffffffffffffffffffffffffffffffffffffffffffffffffffffff1916827bffffffffffffffffffffffffffffffffffffffffffffffffffffffff191614806102e657506102e58261067b565b5b9050919050565b7f68e79a7bf1e0bc45d0a330c573bc367f9cf464fd326078812f301165fbda4ef181565b6000806000838152602001908152602001600020600101549050919050565b61033982610311565b610342816106e5565b61034c83836106f9565b50505050565b61035a6107ea565b73ffffffffffffffffffffffffffffffffffffffff168173ffffffffffffffffffffffffffffffffffffffff16146103be576040517f6697b23200000000000000000000000000000000000000000000000000000000815260040160405180910390fd5b6103c882826107f2565b505050565b6103d5610935565b60026000838152602001908152602001600020604051806060016040529081600082015481526020016001820160009054906101000a900460ff161515151581526020016002820154815250509050919050565b60026020528060005260406000206000915090508060000154908060010160009054906101000a900460ff16908060020154905083565b600080600084815260200190815260200160002060000160008373ffffffffffffffffffffffffffffffffffffffff1673ffffffffffffffffffffffffffffffffffffffff16815260200190815260200160002060009054906101000a900460ff16905092915050565b6104d76000801b33610460565b610516576040517f08c379a000000000000000000000000000000000000000000000000000000000815260040161050d90610d16565b60405180910390fd5b6105407f68e79a7bf1e0bc45d0a330c573bc367f9cf464fd326078812f301165fbda4ef1826106f9565b5050565b6000801b81565b61055482610311565b61055d816106e5565b61056783836107f2565b50505050565b6105977f68e79a7bf1e0bc45d0a330c573bc367f9cf464fd326078812f301165fbda4ef133610460565b6105d6576040517f08c379a00000000000000000000000000000000000000000000000000000000081526004016105cd90610d82565b60405180910390fd5b6040518060600160405280838152602001821515815260200142815250600260008481526020019081526020016000206000820151816000015560208201518160010160006101000a81548160ff02191690831515021790555060408201518160020155905050817f075179f3d694191ca1ba1838976695865d27859de7cb22ad90fcf382dedeb5f8824260405161066f929190610da2565b60405180910390a25050565b60007f01ffc9a7000000000000000000000000000000000000000000000000000000007bffffffffffffffffffffffffffffffffffffffffffffffffffffffff1916827bffffffffffffffffffffffffffffffffffffffffffffffffffffffff1916149050919050565b6106f6816106f16107ea565b6108e4565b50565b60006107058383610460565b6107df57600160008085815260200190815260200160002060000160008473ffffffffffffffffffffffffffffffffffffffff1673ffffffffffffffffffffffffffffffffffffffff16815260200190815260200160002060006101000a81548160ff02191690831515021790555061077c6107ea565b73ffffffffffffffffffffffffffffffffffffffff168273ffffffffffffffffffffffffffffffffffffffff16847f2f8788117e7eff1d82e926ec794901d17c78024a50270940304540a733656f0d60405160405180910390a4600190506107e4565b600090505b92915050565b600033905090565b60006107fe8383610460565b156108d957600080600085815260200190815260200160002060000160008473ffffffffffffffffffffffffffffffffffffffff1673ffffffffffffffffffffffffffffffffffffffff16815260200190815260200160002060006101000a81548160ff0219169083151502179055506108766107ea565b73ffffffffffffffffffffffffffffffffffffffff168273ffffffffffffffffffffffffffffffffffffffff16847ff6391f5c32d9c69d2a47ea670b442974b53935d1edc7fd64eb21e047a839171b60405160405180910390a4600190506108de565b600090505b92915050565b6108ee8282610460565b6109315780826040517fe2517d3f000000000000000000000000000000000000000000000000000000008152600401610928929190610dda565b60405180910390fd5b5050565b604051806060016040528060008019168152602001600015158152602001600081525090565b600080fd5b60007fffffffff0000000000000000000000000000000000000000000000000000000082169050919050565b61099581610960565b81146109a057600080fd5b50565b6000813590506109b28161098c565b92915050565b6000602082840312156109ce576109cd61095b565b5b60006109dc848285016109a3565b91505092915050565b60008115159050919050565b6109fa816109e5565b82525050565b6000602082019050610a1560008301846109f1565b92915050565b6000819050919050565b610a2e81610a1b565b82525050565b6000602082019050610a496000830184610a25565b92915050565b610a5881610a1b565b8114610a6357600080fd5b50565b600081359050610a7581610a4f565b92915050565b600060208284031215610a9157610a9061095b565b5b6000610a9f84828501610a66565b91505092915050565b600073ffffffffffffffffffffffffffffffffffffffff82169050919050565b6000610ad382610aa8565b9050919050565b610ae381610ac8565b8114610aee57600080fd5b50565b600081359050610b0081610ada565b92915050565b60008060408385031215610b1d57610b1c61095b565b5b6000610b2b85828601610a66565b9250506020610b3c85828601610af1565b9150509250929050565b610b4f81610a1b565b82525050565b610b5e816109e5565b82525050565b6000819050919050565b610b7781610b64565b82525050565b606082016000820151610b936000850182610b46565b506020820151610ba66020850182610b55565b506040820151610bb96040850182610b6e565b50505050565b6000606082019050610bd46000830184610b7d565b92915050565b610be381610b64565b82525050565b6000606082019050610bfe6000830186610a25565b610c0b60208301856109f1565b610c186040830184610bda565b949350505050565b600060208284031215610c3657610c3561095b565b5b6000610c4484828501610af1565b91505092915050565b610c56816109e5565b8114610c6157600080fd5b50565b600081359050610c7381610c4d565b92915050565b60008060408385031215610c9057610c8f61095b565b5b6000610c9e85828601610a66565b9250506020610caf85828601610c64565b9150509250929050565b600082825260208201905092915050565b7f4f6e6c792061646d696e2063616e2061737369676e206f7261636c6500000000600082015250565b6000610d00601c83610cb9565b9150610d0b82610cca565b602082019050919050565b60006020820190508181036000830152610d2f81610cf3565b9050919050565b7f43616c6c6572206973206e6f7420617574686f72697a65640000000000000000600082015250565b6000610d6c601883610cb9565b9150610d7782610d36565b602082019050919050565b60006020820190508181036000830152610d9b81610d5f565b9050919050565b6000604082019050610db760008301856109f1565b610dc46020830184610bda565b9392505050565b610dd481610ac8565b82525050565b6000604082019050610def6000830185610dcb565b610dfc6020830184610a25565b939250505056fea264697066735822122091adcc58743a38d593469e99ed2ac96e392537a00803bdf759b3627ff13c78ba64736f6c63430008180033",
  "linkReferences": {},
  "deployedLinkReferences": {}
}