{
  "_format": "hh-sol-artifact-1",
  "contractName": "ConsentManagement",
  "sourceName": "contracts/ConsentManagement.sol",
  "abi": [
    {
      "anonymous": false,
      "inputs": [
        {
          "indexed": true,
          "internalType": "address",
          "name": "user",
          "type": "address"
        },
        {
          "indexed": false,
          "internalType": "string",
          "name": "consentType",
          "type": "string"
        }
      ],
      "name": "ConsentGiven",
      "type": "event"
    },
    {
      "anonymous": false,
      "inputs": [
        {
          "indexed": true,
          "internalType": "address",
          "name": "user",
          "type": "address"
        },
        {
          "indexed": false,
          "internalType": "string",
          "name": "consentType",
          "type": "string"
        }
      ],
      "name": "ConsentRevoked",
      "type": "event"
    },
    {
      "inputs": [
        {
          "internalType": "address",
          "name": "",
          "type": "address"
        },
        {
          "internalType": "string",
          "name": "",
          "type": "string"
        }
      ],
      "name": "consents",
      "outputs": [
        {
          "internalType": "bool",
          "name": "",
          "type": "bool"
        }
      ],
      "stateMutability": "view",
      "type": "function"
    },
    {
      "inputs": [
        {
          "internalType": "string",
          "name": "_consentType",
          "type": "string"
        }
      ],
      "name": "giveConsent",
      "outputs": [],
      "stateMutability": "nonpayable",
      "type": "function"
    },
    {
      "inputs": [
        {
          "internalType": "address",
          "name": "_user",
          "type": "address"
        },
        {
          "internalType": "string",
          "name": "_consentType",
          "type": "string"
        }
      ],
      "name": "hasConsent",
      "outputs": [
        {
          "internalType": "bool",
          "name": "",
          "type": "bool"
        }
      ],
      "stateMutability": "view",
      "type": "function"
    },
    {
      "inputs": [
        {
          "internalType": "string",
          "name": "_consentType",
          "type": "string"
        }
      ],
      "name": "revokeConsent",
      "outputs": [],
      "stateMutability": "nonpayable",
      "type": "function"
    }
  ],
  "bytecode": "0x608060405234801561001057600080fd5b506106e5806100206000396000f3fe608060405234801561001057600080fd5b506004361061004c5760003560e01c80631f733b18146100515780632ca1ce7314610081578063a24d9658146100b1578063ed5ea0d2146100cd575b600080fd5b61006b600480360381019061006691906104e0565b6100e9565b6040516100789190610557565b60405180910390f35b61009b600480360381019061009691906104e0565b61012e565b6040516100a89190610557565b60405180910390f35b6100cb60048036038101906100c69190610572565b6101a0565b005b6100e760048036038101906100e29190610572565b610264565b005b6000602052816000526040600020818051602081018201805184825260208301602085012081835280955050505050506000915091509054906101000a900460ff1681565b60008060008473ffffffffffffffffffffffffffffffffffffffff1673ffffffffffffffffffffffffffffffffffffffff1681526020019081526020016000208260405161017c919061062c565b908152602001604051809103902060009054906101000a900460ff16905092915050565b60008060003373ffffffffffffffffffffffffffffffffffffffff1673ffffffffffffffffffffffffffffffffffffffff168152602001908152602001600020826040516101ee919061062c565b908152602001604051809103902060006101000a81548160ff0219169083151502179055503373ffffffffffffffffffffffffffffffffffffffff167ffd1fc7dba35a9ff2a2c9579fc62b624ea7c6d4cc3820fdfa394e90d114f68e2782604051610259919061068d565b60405180910390a250565b60016000803373ffffffffffffffffffffffffffffffffffffffff1673ffffffffffffffffffffffffffffffffffffffff168152602001908152602001600020826040516102b2919061062c565b908152602001604051809103902060006101000a81548160ff0219169083151502179055503373ffffffffffffffffffffffffffffffffffffffff167ff29c601a25f01bef614ababb5d22aac1e6590dcba4798d7a867d53a7254ff3118260405161031d919061068d565b60405180910390a250565b6000604051905090565b600080fd5b600080fd5b600073ffffffffffffffffffffffffffffffffffffffff82169050919050565b60006103678261033c565b9050919050565b6103778161035c565b811461038257600080fd5b50565b6000813590506103948161036e565b92915050565b600080fd5b600080fd5b6000601f19601f8301169050919050565b7f4e487b7100000000000000000000000000000000000000000000000000000000600052604160045260246000fd5b6103ed826103a4565b810181811067ffffffffffffffff8211171561040c5761040b6103b5565b5b80604052505050565b600061041f610328565b905061042b82826103e4565b919050565b600067ffffffffffffffff82111561044b5761044a6103b5565b5b610454826103a4565b9050602081019050919050565b82818337600083830152505050565b600061048361047e84610430565b610415565b90508281526020810184848401111561049f5761049e61039f565b5b6104aa848285610461565b509392505050565b600082601f8301126104c7576104c661039a565b5b81356104d7848260208601610470565b91505092915050565b600080604083850312156104f7576104f6610332565b5b600061050585828601610385565b925050602083013567ffffffffffffffff81111561052657610525610337565b5b610532858286016104b2565b9150509250929050565b60008115159050919050565b6105518161053c565b82525050565b600060208201905061056c6000830184610548565b92915050565b60006020828403121561058857610587610332565b5b600082013567ffffffffffffffff8111156105a6576105a5610337565b5b6105b2848285016104b2565b91505092915050565b600081519050919050565b600081905092915050565b60005b838110156105ef5780820151818401526020810190506105d4565b60008484015250505050565b6000610606826105bb565b61061081856105c6565b93506106208185602086016105d1565b80840191505092915050565b600061063882846105fb565b915081905092915050565b600082825260208201905092915050565b600061065f826105bb565b6106698185610643565b93506106798185602086016105d1565b610682816103a4565b840191505092915050565b600060208201905081810360008301526106a78184610654565b90509291505056fea2646970667358221220d8c05c00c9aebd13139df738dc94df738db406b5c4fd7a50890ee3c946390a3664736f6c63430008180033",
  "linkReferences": {},
  "deployedLinkReferences": {}
}