{
  "_format": "hh-sol-artifact-1",
  "contractName": "CorrectionRequest",
  "sourceName": "contracts/ConnectionRequest.sol",
  "abi": [
    {
      "inputs": [],
      "stateMutability": "nonpayable",
      "type": "constructor"
    },
    {
      "inputs": [],
      "name": "AccessControlBadConfirmation",
      "type": "error"
    },
    {
      "inputs": [
        {
          "internalType": "address",
          "name": "account",
          "type": "address"
        },
        {
          "internalType": "bytes32",
          "name": "neededRole",
          "type": "bytes32"
        }
      ],
      "name": "AccessControlUnauthorizedAccount",
      "type": "error"
    },
    {
      "anonymous": false,
      "inputs": [
        {
          "indexed": false,
          "internalType": "uint256",
          "name": "requestId",
          "type": "uint256"
        },
        {
          "indexed": false,
          "internalType": "bytes32",
          "name": "docId",
          "type": "bytes32"
        },
        {
          "indexed": false,
          "internalType": "address",
          "name": "requester",
          "type": "address"
        },
        {
          "indexed": false,
          "internalType": "string",
          "name": "reason",
          "type": "string"
        }
      ],
      "name": "CorrectionRequested",
      "type": "event"
    },
    {
      "anonymous": false,
      "inputs": [
        {
          "indexed": false,
          "internalType": "uint256",
          "name": "requestId",
          "type": "uint256"
        },
        {
          "indexed": false,
          "internalType": "enum CorrectionRequest.RequestStatus",
          "name": "status",
          "type": "uint8"
        },
        {
          "indexed": false,
          "internalType": "string",
          "name": "issuerResponse",
          "type": "string"
        }
      ],
      "name": "CorrectionReviewed",
      "type": "event"
    },
    {
      "anonymous": false,
      "inputs": [
        {
          "indexed": true,
          "internalType": "bytes32",
          "name": "role",
          "type": "bytes32"
        },
        {
          "indexed": true,
          "internalType": "bytes32",
          "name": "previousAdminRole",
          "type": "bytes32"
        },
        {
          "indexed": true,
          "internalType": "bytes32",
          "name": "newAdminRole",
          "type": "bytes32"
        }
      ],
      "name": "RoleAdminChanged",
      "type": "event"
    },
    {
      "anonymous": false,
      "inputs": [
        {
          "indexed": true,
          "internalType": "bytes32",
          "name": "role",
          "type": "bytes32"
        },
        {
          "indexed": true,
          "internalType": "address",
          "name": "account",
          "type": "address"
        },
        {
          "indexed": true,
          "internalType": "address",
          "name": "sender",
          "type": "address"
        }
      ],
      "name": "RoleGranted",
      "type": "event"
    },
    {
      "anonymous": false,
      "inputs": [
        {
          "indexed": true,
          "internalType": "bytes32",
          "name": "role",
          "type": "bytes32"
        },
        {
          "indexed": true,
          "internalType": "address",
          "name": "account",
          "type": "address"
        },
        {
          "indexed": true,
          "internalType": "address",
          "name": "sender",
          "type": "address"
        }
      ],
      "name": "RoleRevoked",
      "type": "event"
    },
    {
      "inputs": [],
      "name": "DEFAULT_ADMIN_ROLE",
      "outputs": [
        {
          "internalType": "bytes32",
          "name": "",
          "type": "bytes32"
        }
      ],
      "stateMutability": "view",
      "type": "function"
    },
    {
      "inputs": [],
      "name": "ISSUER_ROLE",
      "outputs": [
        {
          "internalType": "bytes32",
          "name": "",
          "type": "bytes32"
        }
      ],
      "stateMutability": "view",
      "type": "function"
    },
    {
      "inputs": [
        {
          "internalType": "uint256",
          "name": "",
          "type": "uint256"
        }
      ],
      "name": "correctionRequests",
      "outputs": [
        {
          "internalType": "bytes32",
          "name": "docId",
          "type": "bytes32"
        },
        {
          "internalType": "address",
          "name": "requester",
          "type": "address"
        },
        {
          "internalType": "string",
          "name": "reason",
          "type": "string"
        },
        {
          "internalType": "enum CorrectionRequest.RequestStatus",
          "name": "status",
          "type": "uint8"
        },
        {
          "internalType": "string",
          "name": "issuerResponse",
          "type": "string"
        },
        {
          "internalType": "uint256",
          "name": "timestamp",
          "type": "uint256"
        }
      ],
      "stateMutability": "view",
      "type": "function"
    },
    {
      "inputs": [
        {
          "internalType": "uint256",
          "name": "_requestId",
          "type": "uint256"
        }
      ],
      "name": "getCorrectionRequest",
      "outputs": [
        {
          "components": [
            {
              "internalType": "bytes32",
              "name": "docId",
              "type": "bytes32"
            },
            {
              "internalType": "address",
              "name": "requester",
              "type": "address"
            },
            {
              "internalType": "string",
              "name": "reason",
              "type": "string"
            },
            {
              "internalType": "enum CorrectionRequest.RequestStatus",
              "name": "status",
              "type": "uint8"
            },
            {
              "internalType": "string",
              "name": "issuerResponse",
              "type": "string"
            },
            {
              "internalType": "uint256",
              "name": "timestamp",
              "type": "uint256"
            }
          ],
          "internalType": "struct CorrectionRequest.CorrectionRequestStruct",
          "name": "",
          "type": "tuple"
        }
      ],
      "stateMutability": "view",
      "type": "function"
    },
    {
      "inputs": [
        {
          "internalType": "bytes32",
          "name": "role",
          "type": "bytes32"
        }
      ],
      "name": "getRoleAdmin",
      "outputs": [
        {
          "internalType": "bytes32",
          "name": "",
          "type": "bytes32"
        }
      ],
      "stateMutability": "view",
      "type": "function"
    },
    {
      "inputs": [
        {
          "internalType": "bytes32",
          "name": "role",
          "type": "bytes32"
        },
        {
          "internalType": "address",
          "name": "account",
          "type": "address"
        }
      ],
      "name": "grantRole",
      "outputs": [],
      "stateMutability": "nonpayable",
      "type": "function"
    },
    {
      "inputs": [
        {
          "internalType": "bytes32",
          "name": "role",
          "type": "bytes32"
        },
        {
          "internalType": "address",
          "name": "account",
          "type": "address"
        }
      ],
      "name": "hasRole",
      "outputs": [
        {
          "internalType": "bool",
          "name": "",
          "type": "bool"
        }
      ],
      "stateMutability": "view",
      "type": "function"
    },
    {
      "inputs": [
        {
          "internalType": "bytes32",
          "name": "role",
          "type": "bytes32"
        },
        {
          "internalType": "address",
          "name": "callerConfirmation",
          "type": "address"
        }
      ],
      "name": "renounceRole",
      "outputs": [],
      "stateMutability": "nonpayable",
      "type": "function"
    },
    {
      "inputs": [],
      "name": "requestCounter",
      "outputs": [
        {
          "internalType": "uint256",
          "name": "",
          "type": "uint256"
        }
      ],
      "stateMutability": "view",
      "type": "function"
    },
    {
      "inputs": [
        {
          "internalType": "uint256",
          "name": "_requestId",
          "type": "uint256"
        },
        {
          "internalType": "enum CorrectionRequest.RequestStatus",
          "name": "_status",
          "type": "uint8"
        },
        {
          "internalType": "string",
          "name": "_issuerResponse",
          "type": "string"
        }
      ],
      "name": "reviewCorrectionRequest",
      "outputs": [],
      "stateMutability": "nonpayable",
      "type": "function"
    },
    {
      "inputs": [
        {
          "internalType": "bytes32",
          "name": "role",
          "type": "bytes32"
        },
        {
          "internalType": "address",
          "name": "account",
          "type": "address"
        }
      ],
      "name": "revokeRole",
      "outputs": [],
      "stateMutability": "nonpayable",
      "type": "function"
    },
    {
      "inputs": [
        {
          "internalType": "bytes32",
          "name": "_docId",
          "type": "bytes32"
        },
        {
          "internalType": "string",
          "name": "_reason",
          "type": "string"
        }
      ],
      "name": "submitCorrectionRequest",
      "outputs": [],
      "stateMutability": "nonpayable",
      "type": "function"
    },
    {
      "inputs": [
        {
          "internalType": "bytes4",
          "name": "interfaceId",
          "type": "bytes4"
        }
      ],
      "name": "supportsInterface",
      "outputs": [
        {
          "internalType": "bool",
          "name": "",
          "type": "bool"
        }
      ],
      "stateMutability": "view",
      "type": "function"
    }
  ],
  "bytecode": "0x60806040523480156200001157600080fd5b50620000276000801b336200002e60201b60201c565b50620001a3565b60006200004283836200013160201b60201c565b6200012657600160008085815260200190815260200160002060000160008473ffffffffffffffffffffffffffffffffffffffff1673ffffffffffffffffffffffffffffffffffffffff16815260200190815260200160002060006101000a81548160ff021916908315150217905550620000c26200019b60201b60201c565b73ffffffffffffffffffffffffffffffffffffffff168273ffffffffffffffffffffffffffffffffffffffff16847f2f8788117e7eff1d82e926ec794901d17c78024a50270940304540a733656f0d60405160405180910390a4600190506200012b565b600090505b92915050565b600080600084815260200190815260200160002060000160008373ffffffffffffffffffffffffffffffffffffffff1673ffffffffffffffffffffffffffffffffffffffff16815260200190815260200160002060009054906101000a900460ff16905092915050565b600033905090565b611be980620001b36000396000f3fe608060405234801561001057600080fd5b50600436106100cf5760003560e01c806382aefa241161008c578063a217fddf11610066578063a217fddf14610229578063d547741f14610247578063df1b4cf714610263578063f3f5ca5314610293576100cf565b806382aefa24146101bd57806391d14854146101db578063973a814e1461020b576100cf565b806301ffc9a7146100d4578063248a9ca3146101045780632f2ff15d1461013457806336568abe146101505780635c794d851461016c5780637ccb9e0b14610188575b600080fd5b6100ee60048036038101906100e99190610f44565b6102af565b6040516100fb9190610f8c565b60405180910390f35b61011e60048036038101906101199190610fdd565b610329565b60405161012b9190611019565b60405180910390f35b61014e60048036038101906101499190611092565b610348565b005b61016a60048036038101906101659190611092565b61036a565b005b61018660048036038101906101819190611218565b6103e5565b005b6101a2600480360381019061019d91906112aa565b610574565b6040516101b4969594939291906113eb565b60405180910390f35b6101c56106ed565b6040516101d29190611019565b60405180910390f35b6101f560048036038101906101f09190611092565b610711565b6040516102029190610f8c565b60405180910390f35b61021361077b565b604051610220919061145a565b60405180910390f35b610231610781565b60405161023e9190611019565b60405180910390f35b610261600480360381019061025c9190611092565b610788565b005b61027d600480360381019061027891906112aa565b6107aa565b60405161028a919061158b565b60405180910390f35b6102ad60048036038101906102a891906115d2565b6109e4565b005b60007f7965db0b000000000000000000000000000000000000000000000000000000007bffffffffffffffffffffffffffffffffffffffffffffffffffffffff1916827bffffffffffffffffffffffffffffffffffffffffffffffffffffffff19161480610322575061032182610bbd565b5b9050919050565b6000806000838152602001908152602001600020600101549050919050565b61035182610329565b61035a81610c27565b6103648383610c3b565b50505050565b610372610d2c565b73ffffffffffffffffffffffffffffffffffffffff168173ffffffffffffffffffffffffffffffffffffffff16146103d6576040517f6697b23200000000000000000000000000000000000000000000000000000000815260040160405180910390fd5b6103e08282610d34565b505050565b6040518060c001604052808381526020013373ffffffffffffffffffffffffffffffffffffffff1681526020018281526020016000600281111561042c5761042b611365565b5b8152602001604051806020016040528060008152508152602001428152506001600060025481526020019081526020016000206000820151816000015560208201518160010160006101000a81548173ffffffffffffffffffffffffffffffffffffffff021916908373ffffffffffffffffffffffffffffffffffffffff16021790555060408201518160020190816104c5919061184d565b5060608201518160030160006101000a81548160ff021916908360028111156104f1576104f0611365565b5b0217905550608082015181600401908161050b919061184d565b5060a082015181600501559050507f137ee5e27db8e7f7986c44961eb93dd9a8c298d7c9125ffba6283eea974d9da0600254833384604051610550949392919061191f565b60405180910390a16002600081548092919061056b9061199a565b91905055505050565b60016020528060005260406000206000915090508060000154908060010160009054906101000a900473ffffffffffffffffffffffffffffffffffffffff16908060020180546105c390611670565b80601f01602080910402602001604051908101604052809291908181526020018280546105ef90611670565b801561063c5780601f106106115761010080835404028352916020019161063c565b820191906000526020600020905b81548152906001019060200180831161061f57829003601f168201915b5050505050908060030160009054906101000a900460ff169080600401805461066490611670565b80601f016020809104026020016040519081016040528092919081815260200182805461069090611670565b80156106dd5780601f106106b2576101008083540402835291602001916106dd565b820191906000526020600020905b8154815290600101906020018083116106c057829003601f168201915b5050505050908060050154905086565b7f114e74f6ea3bd819998f78687bfcb11b140da08e9b7d222fa9c1f1ba1f2aa12281565b600080600084815260200190815260200160002060000160008373ffffffffffffffffffffffffffffffffffffffff1673ffffffffffffffffffffffffffffffffffffffff16815260200190815260200160002060009054906101000a900460ff16905092915050565b60025481565b6000801b81565b61079182610329565b61079a81610c27565b6107a48383610d34565b50505050565b6107b2610e77565b60025482106107f6576040517f08c379a00000000000000000000000000000000000000000000000000000000081526004016107ed90611a2e565b60405180910390fd5b600160008381526020019081526020016000206040518060c0016040529081600082015481526020016001820160009054906101000a900473ffffffffffffffffffffffffffffffffffffffff1673ffffffffffffffffffffffffffffffffffffffff1673ffffffffffffffffffffffffffffffffffffffff16815260200160028201805461088490611670565b80601f01602080910402602001604051908101604052809291908181526020018280546108b090611670565b80156108fd5780601f106108d2576101008083540402835291602001916108fd565b820191906000526020600020905b8154815290600101906020018083116108e057829003601f168201915b505050505081526020016003820160009054906101000a900460ff16600281111561092b5761092a611365565b5b600281111561093d5761093c611365565b5b815260200160048201805461095190611670565b80601f016020809104026020016040519081016040528092919081815260200182805461097d90611670565b80156109ca5780601f1061099f576101008083540402835291602001916109ca565b820191906000526020600020905b8154815290600101906020018083116109ad57829003601f168201915b505050505081526020016005820154815250509050919050565b610a0e7f114e74f6ea3bd819998f78687bfcb11b140da08e9b7d222fa9c1f1ba1f2aa12233610711565b610a4d576040517f08c379a0000000000000000000000000000000000000000000000000000000008152600401610a4490611ac0565b60405180910390fd5b6002548310610a91576040517f08c379a0000000000000000000000000000000000000000000000000000000008152600401610a8890611a2e565b60405180910390fd5b60006002811115610aa557610aa4611365565b5b6001600085815260200190815260200160002060030160009054906101000a900460ff166002811115610adb57610ada611365565b5b14610b1b576040517f08c379a0000000000000000000000000000000000000000000000000000000008152600401610b1290611b2c565b60405180910390fd5b816001600085815260200190815260200160002060030160006101000a81548160ff02191690836002811115610b5457610b53611365565b5b021790555080600160008581526020019081526020016000206004019081610b7c919061184d565b507f5697d17e782a9ce8e5045e5f90788a80d793fcbcf3f8e9d35db44e3f2335bf8c838383604051610bb093929190611b4c565b60405180910390a1505050565b60007f01ffc9a7000000000000000000000000000000000000000000000000000000007bffffffffffffffffffffffffffffffffffffffffffffffffffffffff1916827bffffffffffffffffffffffffffffffffffffffffffffffffffffffff1916149050919050565b610c3881610c33610d2c565b610e26565b50565b6000610c478383610711565b610d2157600160008085815260200190815260200160002060000160008473ffffffffffffffffffffffffffffffffffffffff1673ffffffffffffffffffffffffffffffffffffffff16815260200190815260200160002060006101000a81548160ff021916908315150217905550610cbe610d2c565b73ffffffffffffffffffffffffffffffffffffffff168273ffffffffffffffffffffffffffffffffffffffff16847f2f8788117e7eff1d82e926ec794901d17c78024a50270940304540a733656f0d60405160405180910390a460019050610d26565b600090505b92915050565b600033905090565b6000610d408383610711565b15610e1b57600080600085815260200190815260200160002060000160008473ffffffffffffffffffffffffffffffffffffffff1673ffffffffffffffffffffffffffffffffffffffff16815260200190815260200160002060006101000a81548160ff021916908315150217905550610db8610d2c565b73ffffffffffffffffffffffffffffffffffffffff168273ffffffffffffffffffffffffffffffffffffffff16847ff6391f5c32d9c69d2a47ea670b442974b53935d1edc7fd64eb21e047a839171b60405160405180910390a460019050610e20565b600090505b92915050565b610e308282610711565b610e735780826040517fe2517d3f000000000000000000000000000000000000000000000000000000008152600401610e6a929190611b8a565b60405180910390fd5b5050565b6040518060c0016040528060008019168152602001600073ffffffffffffffffffffffffffffffffffffffff1681526020016060815260200160006002811115610ec457610ec3611365565b5b815260200160608152602001600081525090565b6000604051905090565b600080fd5b600080fd5b60007fffffffff0000000000000000000000000000000000000000000000000000000082169050919050565b610f2181610eec565b8114610f2c57600080fd5b50565b600081359050610f3e81610f18565b92915050565b600060208284031215610f5a57610f59610ee2565b5b6000610f6884828501610f2f565b91505092915050565b60008115159050919050565b610f8681610f71565b82525050565b6000602082019050610fa16000830184610f7d565b92915050565b6000819050919050565b610fba81610fa7565b8114610fc557600080fd5b50565b600081359050610fd781610fb1565b92915050565b600060208284031215610ff357610ff2610ee2565b5b600061100184828501610fc8565b91505092915050565b61101381610fa7565b82525050565b600060208201905061102e600083018461100a565b92915050565b600073ffffffffffffffffffffffffffffffffffffffff82169050919050565b600061105f82611034565b9050919050565b61106f81611054565b811461107a57600080fd5b50565b60008135905061108c81611066565b92915050565b600080604083850312156110a9576110a8610ee2565b5b60006110b785828601610fc8565b92505060206110c88582860161107d565b9150509250929050565b600080fd5b600080fd5b6000601f19601f8301169050919050565b7f4e487b7100000000000000000000000000000000000000000000000000000000600052604160045260246000fd5b611125826110dc565b810181811067ffffffffffffffff82111715611144576111436110ed565b5b80604052505050565b6000611157610ed8565b9050611163828261111c565b919050565b600067ffffffffffffffff821115611183576111826110ed565b5b61118c826110dc565b9050602081019050919050565b82818337600083830152505050565b60006111bb6111b684611168565b61114d565b9050828152602081018484840111156111d7576111d66110d7565b5b6111e2848285611199565b509392505050565b600082601f8301126111ff576111fe6110d2565b5b813561120f8482602086016111a8565b91505092915050565b6000806040838503121561122f5761122e610ee2565b5b600061123d85828601610fc8565b925050602083013567ffffffffffffffff81111561125e5761125d610ee7565b5b61126a858286016111ea565b9150509250929050565b6000819050919050565b61128781611274565b811461129257600080fd5b50565b6000813590506112a48161127e565b92915050565b6000602082840312156112c0576112bf610ee2565b5b60006112ce84828501611295565b91505092915050565b6112e081611054565b82525050565b600081519050919050565b600082825260208201905092915050565b60005b83811015611320578082015181840152602081019050611305565b60008484015250505050565b6000611337826112e6565b61134181856112f1565b9350611351818560208601611302565b61135a816110dc565b840191505092915050565b7f4e487b7100000000000000000000000000000000000000000000000000000000600052602160045260246000fd5b600381106113a5576113a4611365565b5b50565b60008190506113b682611394565b919050565b60006113c6826113a8565b9050919050565b6113d6816113bb565b82525050565b6113e581611274565b82525050565b600060c082019050611400600083018961100a565b61140d60208301886112d7565b818103604083015261141f818761132c565b905061142e60608301866113cd565b8181036080830152611440818561132c565b905061144f60a08301846113dc565b979650505050505050565b600060208201905061146f60008301846113dc565b92915050565b61147e81610fa7565b82525050565b61148d81611054565b82525050565b600082825260208201905092915050565b60006114af826112e6565b6114b98185611493565b93506114c9818560208601611302565b6114d2816110dc565b840191505092915050565b6114e6816113bb565b82525050565b6114f581611274565b82525050565b600060c0830160008301516115136000860182611475565b5060208301516115266020860182611484565b506040830151848203604086015261153e82826114a4565b915050606083015161155360608601826114dd565b506080830151848203608086015261156b82826114a4565b91505060a083015161158060a08601826114ec565b508091505092915050565b600060208201905081810360008301526115a581846114fb565b905092915050565b600381106115ba57600080fd5b50565b6000813590506115cc816115ad565b92915050565b6000806000606084860312156115eb576115ea610ee2565b5b60006115f986828701611295565b935050602061160a868287016115bd565b925050604084013567ffffffffffffffff81111561162b5761162a610ee7565b5b611637868287016111ea565b9150509250925092565b7f4e487b7100000000000000000000000000000000000000000000000000000000600052602260045260246000fd5b6000600282049050600182168061168857607f821691505b60208210810361169b5761169a611641565b5b50919050565b60008190508160005260206000209050919050565b60006020601f8301049050919050565b600082821b905092915050565b6000600883026117037fffffffffffffffffffffffffffffffffffffffffffffffffffffffffffffffff826116c6565b61170d86836116c6565b95508019841693508086168417925050509392505050565b6000819050919050565b600061174a61174561174084611274565b611725565b611274565b9050919050565b6000819050919050565b6117648361172f565b61177861177082611751565b8484546116d3565b825550505050565b600090565b61178d611780565b61179881848461175b565b505050565b5b818110156117bc576117b1600082611785565b60018101905061179e565b5050565b601f821115611801576117d2816116a1565b6117db846116b6565b810160208510156117ea578190505b6117fe6117f6856116b6565b83018261179d565b50505b505050565b600082821c905092915050565b600061182460001984600802611806565b1980831691505092915050565b600061183d8383611813565b9150826002028217905092915050565b611856826112e6565b67ffffffffffffffff81111561186f5761186e6110ed565b5b6118798254611670565b6118848282856117c0565b600060209050601f8311600181146118b757600084156118a5578287015190505b6118af8582611831565b865550611917565b601f1984166118c5866116a1565b60005b828110156118ed578489015182556001820191506020850194506020810190506118c8565b8683101561190a5784890151611906601f891682611813565b8355505b6001600288020188555050505b505050505050565b600060808201905061193460008301876113dc565b611941602083018661100a565b61194e60408301856112d7565b8181036060830152611960818461132c565b905095945050505050565b7f4e487b7100000000000000000000000000000000000000000000000000000000600052601160045260246000fd5b60006119a582611274565b91507fffffffffffffffffffffffffffffffffffffffffffffffffffffffffffffffff82036119d7576119d661196b565b5b600182019050919050565b7f496e76616c696420726571756573742049440000000000000000000000000000600082015250565b6000611a186012836112f1565b9150611a23826119e2565b602082019050919050565b60006020820190508181036000830152611a4781611a0b565b9050919050565b7f43616c6c6572206973206e6f7420616e2069737375696e6720617574686f726960008201527f7479000000000000000000000000000000000000000000000000000000000000602082015250565b6000611aaa6022836112f1565b9150611ab582611a4e565b604082019050919050565b60006020820190508181036000830152611ad981611a9d565b9050919050565b7f5265717565737420616c72656164792072657669657765640000000000000000600082015250565b6000611b166018836112f1565b9150611b2182611ae0565b602082019050919050565b60006020820190508181036000830152611b4581611b09565b9050919050565b6000606082019050611b6160008301866113dc565b611b6e60208301856113cd565b8181036040830152611b80818461132c565b9050949350505050565b6000604082019050611b9f60008301856112d7565b611bac602083018461100a565b939250505056fea264697066735822122071e7f1b3525a5db8033320271055d667945fe6ab80a99846da7c1313d0b6971d64736f6c63430008180033",
  "linkReferences": {},
  "deployedLinkReferences": {}
}