{
  "_format": "hh-sol-artifact-1",
  "contractName": "DocumentRegistry",
  "sourceName": "contracts/DocumentRegistry.sol",
  "abi": [
    {
      "inputs": [],
      "name": "AccessControlBadConfirmation",
      "type": "error"
    },
    {
      "inputs": [
        {
          "internalType": "address",
          "name": "account",
          "type": "address"
        },
        {
          "internalType": "bytes32",
          "name": "neededRole",
          "type": "bytes32"
        }
      ],
      "name": "AccessControlUnauthorizedAccount",
      "type": "error"
    },
    {
      "anonymous": false,
      "inputs": [
        {
          "indexed": true,
          "internalType": "bytes32",
          "name": "docId",
          "type": "bytes32"
        },
        {
          "indexed": true,
          "internalType": "address",
          "name": "issuer",
          "type": "address"
        },
        {
          "indexed": true,
          "internalType": "address",
          "name": "recipient",
          "type": "address"
        }
      ],
      "name": "DocumentIssued",
      "type": "event"
    },
    {
      "anonymous": false,
      "inputs": [
        {
          "indexed": true,
          "internalType": "bytes32",
          "name": "docId",
          "type": "bytes32"
        },
        {
          "indexed": true,
          "internalType": "address",
          "name": "issuer",
          "type": "address"
        }
      ],
      "name": "DocumentRevoked",
      "type": "event"
    },
    {
      "anonymous": false,
      "inputs": [
        {
          "indexed": true,
          "internalType": "bytes32",
          "name": "role",
          "type": "bytes32"
        },
        {
          "indexed": true,
          "internalType": "bytes32",
          "name": "previousAdminRole",
          "type": "bytes32"
        },
        {
          "indexed": true,
          "internalType": "bytes32",
          "name": "newAdminRole",
          "type": "bytes32"
        }
      ],
      "name": "RoleAdminChanged",
      "type": "event"
    },
    {
      "anonymous": false,
      "inputs": [
        {
          "indexed": true,
          "internalType": "bytes32",
          "name": "role",
          "type": "bytes32"
        },
        {
          "indexed": true,
          "internalType": "address",
          "name": "account",
          "type": "address"
        },
        {
          "indexed": true,
          "internalType": "address",
          "name": "sender",
          "type": "address"
        }
      ],
      "name": "RoleGranted",
      "type": "event"
    },
    {
      "anonymous": false,
      "inputs": [
        {
          "indexed": true,
          "internalType": "bytes32",
          "name": "role",
          "type": "bytes32"
        },
        {
          "indexed": true,
          "internalType": "address",
          "name": "account",
          "type": "address"
        },
        {
          "indexed": true,
          "internalType": "address",
          "name": "sender",
          "type": "address"
        }
      ],
      "name": "RoleRevoked",
      "type": "event"
    },
    {
      "inputs": [],
      "name": "DEFAULT_ADMIN_ROLE",
      "outputs": [
        {
          "internalType": "bytes32",
          "name": "",
          "type": "bytes32"
        }
      ],
      "stateMutability": "view",
      "type": "function"
    },
    {
      "inputs": [],
      "name": "ISSUER_ROLE",
      "outputs": [
        {
          "internalType": "bytes32",
          "name": "",
          "type": "bytes32"
        }
      ],
      "stateMutability": "view",
      "type": "function"
    },
    {
      "inputs": [],
      "name": "VERIFIER_ROLE",
      "outputs": [
        {
          "internalType": "bytes32",
          "name": "",
          "type": "bytes32"
        }
      ],
      "stateMutability": "view",
      "type": "function"
    },
    {
      "inputs": [
        {
          "internalType": "address",
          "name": "_account",
          "type": "address"
        }
      ],
      "name": "addIssuingAuthority",
      "outputs": [],
      "stateMutability": "nonpayable",
      "type": "function"
    },
    {
      "inputs": [
        {
          "internalType": "address",
          "name": "_account",
          "type": "address"
        }
      ],
      "name": "addVerifyingAuthority",
      "outputs": [],
      "stateMutability": "nonpayable",
      "type": "function"
    },
    {
      "inputs": [
        {
          "internalType": "bytes32",
          "name": "",
          "type": "bytes32"
        }
      ],
      "name": "documents",
      "outputs": [
        {
          "internalType": "string",
          "name": "ipfsCid",
          "type": "string"
        },
        {
          "internalType": "bytes32",
          "name": "documentHash",
          "type": "bytes32"
        },
        {
          "internalType": "address",
          "name": "issuer",
          "type": "address"
        },
        {
          "internalType": "address",
          "name": "recipient",
          "type": "address"
        },
        {
          "internalType": "uint256",
          "name": "timestamp",
          "type": "uint256"
        },
        {
          "internalType": "bool",
          "name": "isActive",
          "type": "bool"
        }
      ],
      "stateMutability": "view",
      "type": "function"
    },
    {
      "inputs": [
        {
          "internalType": "bytes32",
          "name": "_docId",
          "type": "bytes32"
        }
      ],
      "name": "getDocument",
      "outputs": [
        {
          "components": [
            {
              "internalType": "string",
              "name": "ipfsCid",
              "type": "string"
            },
            {
              "internalType": "bytes32",
              "name": "documentHash",
              "type": "bytes32"
            },
            {
              "internalType": "address",
              "name": "issuer",
              "type": "address"
            },
            {
              "internalType": "address",
              "name": "recipient",
              "type": "address"
            },
            {
              "internalType": "uint256",
              "name": "timestamp",
              "type": "uint256"
            },
            {
              "internalType": "bool",
              "name": "isActive",
              "type": "bool"
            }
          ],
          "internalType": "struct DocumentRegistry.Document",
          "name": "",
          "type": "tuple"
        }
      ],
      "stateMutability": "view",
      "type": "function"
    },
    {
      "inputs": [
        {
          "internalType": "bytes32",
          "name": "role",
          "type": "bytes32"
        }
      ],
      "name": "getRoleAdmin",
      "outputs": [
        {
          "internalType": "bytes32",
          "name": "",
          "type": "bytes32"
        }
      ],
      "stateMutability": "view",
      "type": "function"
    },
    {
      "inputs": [
        {
          "internalType": "bytes32",
          "name": "role",
          "type": "bytes32"
        },
        {
          "internalType": "address",
          "name": "account",
          "type": "address"
        }
      ],
      "name": "grantRole",
      "outputs": [],
      "stateMutability": "nonpayable",
      "type": "function"
    },
    {
      "inputs": [
        {
          "internalType": "bytes32",
          "name": "role",
          "type": "bytes32"
        },
        {
          "internalType": "address",
          "name": "account",
          "type": "address"
        }
      ],
      "name": "hasRole",
      "outputs": [
        {
          "internalType": "bool",
          "name": "",
          "type": "bool"
        }
      ],
      "stateMutability": "view",
      "type": "function"
    },
    {
      "inputs": [
        {
          "internalType": "address",
          "name": "_account",
          "type": "address"
        }
      ],
      "name": "isIssuingAuthority",
      "outputs": [
        {
          "internalType": "bool",
          "name": "",
          "type": "bool"
        }
      ],
      "stateMutability": "view",
      "type": "function"
    },
    {
      "inputs": [
        {
          "internalType": "address",
          "name": "_account",
          "type": "address"
        }
      ],
      "name": "isVerifyingAuthority",
      "outputs": [
        {
          "internalType": "bool",
          "name": "",
          "type": "bool"
        }
      ],
      "stateMutability": "view",
      "type": "function"
    },
    {
      "inputs": [
        {
          "internalType": "bytes32",
          "name": "_docId",
          "type": "bytes32"
        },
        {
          "internalType": "string",
          "name": "_ipfsCid",
          "type": "string"
        },
        {
          "internalType": "bytes32",
          "name": "_documentHash",
          "type": "bytes32"
        },
        {
          "internalType": "address",
          "name": "_recipient",
          "type": "address"
        }
      ],
      "name": "issueDocument",
      "outputs": [],
      "stateMutability": "nonpayable",
      "type": "function"
    },
    {
      "inputs": [
        {
          "internalType": "bytes32",
          "name": "role",
          "type": "bytes32"
        },
        {
          "internalType": "address",
          "name": "callerConfirmation",
          "type": "address"
        }
      ],
      "name": "renounceRole",
      "outputs": [],
      "stateMutability": "nonpayable",
      "type": "function"
    },
    {
      "inputs": [
        {
          "internalType": "bytes32",
          "name": "_docId",
          "type": "bytes32"
        }
      ],
      "name": "revokeDocument",
      "outputs": [],
      "stateMutability": "nonpayable",
      "type": "function"
    },
    {
      "inputs": [
        {
          "internalType": "bytes32",
          "name": "role",
          "type": "bytes32"
        },
        {
          "internalType": "address",
          "name": "account",
          "type": "address"
        }
      ],
      "name": "revokeRole",
      "outputs": [],
      "stateMutability": "nonpayable",
      "type": "function"
    },
    {
      "inputs": [
        {
          "internalType": "bytes4",
          "name": "interfaceId",
          "type": "bytes4"
        }
      ],
      "name": "supportsInterface",
      "outputs": [
        {
          "internalType": "bool",
          "name": "",
          "type": "bool"
        }
      ],
      "stateMutability": "view",
      "type": "function"
    }
  ],
  "bytecode": "0x60806040523480156200001157600080fd5b50620000276000801b336200002e60201b60201c565b50620001a3565b60006200004283836200013160201b60201c565b6200012657600160008085815260200190815260200160002060000160008473ffffffffffffffffffffffffffffffffffffffff1673ffffffffffffffffffffffffffffffffffffffff16815260200190815260200160002060006101000a81548160ff021916908315150217905550620000c26200019b60201b60201c565b73ffffffffffffffffffffffffffffffffffffffff168273ffffffffffffffffffffffffffffffffffffffff16847f2f8788117e7eff1d82e926ec794901d17c78024a50270940304540a733656f0d60405160405180910390a4600190506200012b565b600090505b92915050565b600080600084815260200190815260200160002060000160008373ffffffffffffffffffffffffffffffffffffffff1673ffffffffffffffffffffffffffffffffffffffff16815260200190815260200160002060009054906101000a900460ff16905092915050565b600033905090565b611d0b80620001b36000396000f3fe608060405234801561001057600080fd5b506004361061010b5760003560e01c80637ce414c1116100a2578063a217fddf11610071578063a217fddf146102cb578063b10d6b41146102e9578063b73832d714610319578063d547741f14610349578063e7705db6146103655761010b565b80637ce414c11461024557806382aefa241461026157806391d148541461027f578063952be80d146102af5761010b565b806336568abe116100de57806336568abe146101c15780633bff2299146101dd57806362072264146101f957806369567b20146102295761010b565b806301ffc9a714610110578063248a9ca3146101405780632b2805db146101705780632f2ff15d146101a5575b600080fd5b61012a60048036038101906101259190611110565b610383565b6040516101379190611158565b60405180910390f35b61015a600480360381019061015591906111a9565b6103fd565b60405161016791906111e5565b60405180910390f35b61018a600480360381019061018591906111a9565b61041c565b60405161019c969594939291906112ea565b60405180910390f35b6101bf60048036038101906101ba919061137e565b61052d565b005b6101db60048036038101906101d6919061137e565b61054f565b005b6101f760048036038101906101f291906113be565b6105ca565b005b610213600480360381019061020e91906113be565b610644565b6040516102209190611158565b60405180910390f35b610243600480360381019061023e9190611520565b610677565b005b61025f600480360381019061025a91906113be565b6108e4565b005b61026961095e565b60405161027691906111e5565b60405180910390f35b6102996004803603810190610294919061137e565b610982565b6040516102a69190611158565b60405180910390f35b6102c960048036038101906102c491906111a9565b6109ec565b005b6102d3610b69565b6040516102e091906111e5565b60405180910390f35b61030360048036038101906102fe91906111a9565b610b70565b60405161031091906116b2565b60405180910390f35b610333600480360381019061032e91906113be565b610d0a565b6040516103409190611158565b60405180910390f35b610363600480360381019061035e919061137e565b610d3d565b005b61036d610d5f565b60405161037a91906111e5565b60405180910390f35b60007f7965db0b000000000000000000000000000000000000000000000000000000007bffffffffffffffffffffffffffffffffffffffffffffffffffffffff1916827bffffffffffffffffffffffffffffffffffffffffffffffffffffffff191614806103f657506103f582610d83565b5b9050919050565b6000806000838152602001908152602001600020600101549050919050565b600160205280600052604060002060009150905080600001805461043f90611703565b80601f016020809104026020016040519081016040528092919081815260200182805461046b90611703565b80156104b85780601f1061048d576101008083540402835291602001916104b8565b820191906000526020600020905b81548152906001019060200180831161049b57829003601f168201915b5050505050908060010154908060020160009054906101000a900473ffffffffffffffffffffffffffffffffffffffff16908060030160009054906101000a900473ffffffffffffffffffffffffffffffffffffffff16908060040154908060050160009054906101000a900460ff16905086565b610536826103fd565b61053f81610ded565b6105498383610e01565b50505050565b610557610ef2565b73ffffffffffffffffffffffffffffffffffffffff168173ffffffffffffffffffffffffffffffffffffffff16146105bb576040517f6697b23200000000000000000000000000000000000000000000000000000000815260040160405180910390fd5b6105c58282610efa565b505050565b6105d76000801b33610982565b610616576040517f08c379a000000000000000000000000000000000000000000000000000000000815260040161060d906117a6565b60405180910390fd5b6106407f114e74f6ea3bd819998f78687bfcb11b140da08e9b7d222fa9c1f1ba1f2aa12282610e01565b5050565b60006106707f0ce23c3e399818cfee81a7ab0880f714e53d7672b08df0fa62f2843416e1ea0983610982565b9050919050565b6106a17f114e74f6ea3bd819998f78687bfcb11b140da08e9b7d222fa9c1f1ba1f2aa12233610982565b6106e0576040517f08c379a00000000000000000000000000000000000000000000000000000000081526004016106d790611838565b60405180910390fd5b6000600160008681526020019081526020016000206004015414610739576040517f08c379a0000000000000000000000000000000000000000000000000000000008152600401610730906118a4565b60405180910390fd5b6040518060c001604052808481526020018381526020013373ffffffffffffffffffffffffffffffffffffffff1681526020018273ffffffffffffffffffffffffffffffffffffffff168152602001428152602001600115158152506001600086815260200190815260200160002060008201518160000190816107bd9190611a70565b506020820151816001015560408201518160020160006101000a81548173ffffffffffffffffffffffffffffffffffffffff021916908373ffffffffffffffffffffffffffffffffffffffff16021790555060608201518160030160006101000a81548173ffffffffffffffffffffffffffffffffffffffff021916908373ffffffffffffffffffffffffffffffffffffffff1602179055506080820151816004015560a08201518160050160006101000a81548160ff0219169083151502179055509050508073ffffffffffffffffffffffffffffffffffffffff163373ffffffffffffffffffffffffffffffffffffffff16857f1f35691abd48f281715705abee28570ac3c17090a73eb24c0adc0bdc5cada3fb60405160405180910390a450505050565b6108f16000801b33610982565b610930576040517f08c379a000000000000000000000000000000000000000000000000000000000815260040161092790611bb4565b60405180910390fd5b61095a7f0ce23c3e399818cfee81a7ab0880f714e53d7672b08df0fa62f2843416e1ea0982610e01565b5050565b7f114e74f6ea3bd819998f78687bfcb11b140da08e9b7d222fa9c1f1ba1f2aa12281565b600080600084815260200190815260200160002060000160008373ffffffffffffffffffffffffffffffffffffffff1673ffffffffffffffffffffffffffffffffffffffff16815260200190815260200160002060009054906101000a900460ff16905092915050565b3373ffffffffffffffffffffffffffffffffffffffff166001600083815260200190815260200160002060020160009054906101000a900473ffffffffffffffffffffffffffffffffffffffff1673ffffffffffffffffffffffffffffffffffffffff1614610a90576040517f08c379a0000000000000000000000000000000000000000000000000000000008152600401610a8790611c20565b60405180910390fd5b6001600082815260200190815260200160002060050160009054906101000a900460ff16610af3576040517f08c379a0000000000000000000000000000000000000000000000000000000008152600401610aea90611c8c565b60405180910390fd5b60006001600083815260200190815260200160002060050160006101000a81548160ff0219169083151502179055503373ffffffffffffffffffffffffffffffffffffffff16817f0a7643bfbd115d98595cc7bd15944172c7ef0e4a7f48dcaf676dec4b74be936760405160405180910390a350565b6000801b81565b610b7861103d565b600160008381526020019081526020016000206040518060c0016040529081600082018054610ba690611703565b80601f0160208091040260200160405190810160405280929190818152602001828054610bd290611703565b8015610c1f5780601f10610bf457610100808354040283529160200191610c1f565b820191906000526020600020905b815481529060010190602001808311610c0257829003601f168201915b50505050508152602001600182015481526020016002820160009054906101000a900473ffffffffffffffffffffffffffffffffffffffff1673ffffffffffffffffffffffffffffffffffffffff1673ffffffffffffffffffffffffffffffffffffffff1681526020016003820160009054906101000a900473ffffffffffffffffffffffffffffffffffffffff1673ffffffffffffffffffffffffffffffffffffffff1673ffffffffffffffffffffffffffffffffffffffff168152602001600482015481526020016005820160009054906101000a900460ff1615151515815250509050919050565b6000610d367f114e74f6ea3bd819998f78687bfcb11b140da08e9b7d222fa9c1f1ba1f2aa12283610982565b9050919050565b610d46826103fd565b610d4f81610ded565b610d598383610efa565b50505050565b7f0ce23c3e399818cfee81a7ab0880f714e53d7672b08df0fa62f2843416e1ea0981565b60007f01ffc9a7000000000000000000000000000000000000000000000000000000007bffffffffffffffffffffffffffffffffffffffffffffffffffffffff1916827bffffffffffffffffffffffffffffffffffffffffffffffffffffffff1916149050919050565b610dfe81610df9610ef2565b610fec565b50565b6000610e0d8383610982565b610ee757600160008085815260200190815260200160002060000160008473ffffffffffffffffffffffffffffffffffffffff1673ffffffffffffffffffffffffffffffffffffffff16815260200190815260200160002060006101000a81548160ff021916908315150217905550610e84610ef2565b73ffffffffffffffffffffffffffffffffffffffff168273ffffffffffffffffffffffffffffffffffffffff16847f2f8788117e7eff1d82e926ec794901d17c78024a50270940304540a733656f0d60405160405180910390a460019050610eec565b600090505b92915050565b600033905090565b6000610f068383610982565b15610fe157600080600085815260200190815260200160002060000160008473ffffffffffffffffffffffffffffffffffffffff1673ffffffffffffffffffffffffffffffffffffffff16815260200190815260200160002060006101000a81548160ff021916908315150217905550610f7e610ef2565b73ffffffffffffffffffffffffffffffffffffffff168273ffffffffffffffffffffffffffffffffffffffff16847ff6391f5c32d9c69d2a47ea670b442974b53935d1edc7fd64eb21e047a839171b60405160405180910390a460019050610fe6565b600090505b92915050565b610ff68282610982565b6110395780826040517fe2517d3f000000000000000000000000000000000000000000000000000000008152600401611030929190611cac565b60405180910390fd5b5050565b6040518060c001604052806060815260200160008019168152602001600073ffffffffffffffffffffffffffffffffffffffff168152602001600073ffffffffffffffffffffffffffffffffffffffff168152602001600081526020016000151581525090565b6000604051905090565b600080fd5b600080fd5b60007fffffffff0000000000000000000000000000000000000000000000000000000082169050919050565b6110ed816110b8565b81146110f857600080fd5b50565b60008135905061110a816110e4565b92915050565b600060208284031215611126576111256110ae565b5b6000611134848285016110fb565b91505092915050565b60008115159050919050565b6111528161113d565b82525050565b600060208201905061116d6000830184611149565b92915050565b6000819050919050565b61118681611173565b811461119157600080fd5b50565b6000813590506111a38161117d565b92915050565b6000602082840312156111bf576111be6110ae565b5b60006111cd84828501611194565b91505092915050565b6111df81611173565b82525050565b60006020820190506111fa60008301846111d6565b92915050565b600081519050919050565b600082825260208201905092915050565b60005b8381101561123a57808201518184015260208101905061121f565b60008484015250505050565b6000601f19601f8301169050919050565b600061126282611200565b61126c818561120b565b935061127c81856020860161121c565b61128581611246565b840191505092915050565b600073ffffffffffffffffffffffffffffffffffffffff82169050919050565b60006112bb82611290565b9050919050565b6112cb816112b0565b82525050565b6000819050919050565b6112e4816112d1565b82525050565b600060c08201905081810360008301526113048189611257565b905061131360208301886111d6565b61132060408301876112c2565b61132d60608301866112c2565b61133a60808301856112db565b61134760a0830184611149565b979650505050505050565b61135b816112b0565b811461136657600080fd5b50565b60008135905061137881611352565b92915050565b60008060408385031215611395576113946110ae565b5b60006113a385828601611194565b92505060206113b485828601611369565b9150509250929050565b6000602082840312156113d4576113d36110ae565b5b60006113e284828501611369565b91505092915050565b600080fd5b600080fd5b7f4e487b7100000000000000000000000000000000000000000000000000000000600052604160045260246000fd5b61142d82611246565b810181811067ffffffffffffffff8211171561144c5761144b6113f5565b5b80604052505050565b600061145f6110a4565b905061146b8282611424565b919050565b600067ffffffffffffffff82111561148b5761148a6113f5565b5b61149482611246565b9050602081019050919050565b82818337600083830152505050565b60006114c36114be84611470565b611455565b9050828152602081018484840111156114df576114de6113f0565b5b6114ea8482856114a1565b509392505050565b600082601f830112611507576115066113eb565b5b81356115178482602086016114b0565b91505092915050565b6000806000806080858703121561153a576115396110ae565b5b600061154887828801611194565b945050602085013567ffffffffffffffff811115611569576115686110b3565b5b611575878288016114f2565b935050604061158687828801611194565b925050606061159787828801611369565b91505092959194509250565b600082825260208201905092915050565b60006115bf82611200565b6115c981856115a3565b93506115d981856020860161121c565b6115e281611246565b840191505092915050565b6115f681611173565b82525050565b611605816112b0565b82525050565b611614816112d1565b82525050565b6116238161113d565b82525050565b600060c083016000830151848203600086015261164682826115b4565b915050602083015161165b60208601826115ed565b50604083015161166e60408601826115fc565b50606083015161168160608601826115fc565b506080830151611694608086018261160b565b5060a08301516116a760a086018261161a565b508091505092915050565b600060208201905081810360008301526116cc8184611629565b905092915050565b7f4e487b7100000000000000000000000000000000000000000000000000000000600052602260045260246000fd5b6000600282049050600182168061171b57607f821691505b60208210810361172e5761172d6116d4565b5b50919050565b7f4f6e6c792061646d696e2063616e2061737369676e2069737375657220726f6c60008201527f6500000000000000000000000000000000000000000000000000000000000000602082015250565b600061179060218361120b565b915061179b82611734565b604082019050919050565b600060208201905081810360008301526117bf81611783565b9050919050565b7f43616c6c6572206973206e6f7420616e2069737375696e6720617574686f726960008201527f7479000000000000000000000000000000000000000000000000000000000000602082015250565b600061182260228361120b565b915061182d826117c6565b604082019050919050565b6000602082019050818103600083015261185181611815565b9050919050565b7f446f63756d656e7420616c726561647920657869737473000000000000000000600082015250565b600061188e60178361120b565b915061189982611858565b602082019050919050565b600060208201905081810360008301526118bd81611881565b9050919050565b60008190508160005260206000209050919050565b60006020601f8301049050919050565b600082821b905092915050565b6000600883026119267fffffffffffffffffffffffffffffffffffffffffffffffffffffffffffffffff826118e9565b61193086836118e9565b95508019841693508086168417925050509392505050565b6000819050919050565b600061196d611968611963846112d1565b611948565b6112d1565b9050919050565b6000819050919050565b61198783611952565b61199b61199382611974565b8484546118f6565b825550505050565b600090565b6119b06119a3565b6119bb81848461197e565b505050565b5b818110156119df576119d46000826119a8565b6001810190506119c1565b5050565b601f821115611a24576119f5816118c4565b6119fe846118d9565b81016020851015611a0d578190505b611a21611a19856118d9565b8301826119c0565b50505b505050565b600082821c905092915050565b6000611a4760001984600802611a29565b1980831691505092915050565b6000611a608383611a36565b9150826002028217905092915050565b611a7982611200565b67ffffffffffffffff811115611a9257611a916113f5565b5b611a9c8254611703565b611aa78282856119e3565b600060209050601f831160018114611ada5760008415611ac8578287015190505b611ad28582611a54565b865550611b3a565b601f198416611ae8866118c4565b60005b82811015611b1057848901518255600182019150602085019450602081019050611aeb565b86831015611b2d5784890151611b29601f891682611a36565b8355505b6001600288020188555050505b505050505050565b7f4f6e6c792061646d696e2063616e2061737369676e207665726966696572207260008201527f6f6c650000000000000000000000000000000000000000000000000000000000602082015250565b6000611b9e60238361120b565b9150611ba982611b42565b604082019050919050565b60006020820190508181036000830152611bcd81611b91565b9050919050565b7f4f6e6c79206973737565722063616e207265766f6b6500000000000000000000600082015250565b6000611c0a60168361120b565b9150611c1582611bd4565b602082019050919050565b60006020820190508181036000830152611c3981611bfd565b9050919050565b7f446f63756d656e7420616c7265616479207265766f6b65640000000000000000600082015250565b6000611c7660188361120b565b9150611c8182611c40565b602082019050919050565b60006020820190508181036000830152611ca581611c69565b9050919050565b6000604082019050611cc160008301856112c2565b611cce60208301846111d6565b939250505056fea26469706673582212206a05c3890f0ed088058d8709fc7140ae5557902e1db3cfd6cfe6a3e9a1ea0ca864736f6c63430008180033",
  "linkReferences": {},
  "deployedLinkReferences": {}
}