{
  "_format": "hh-sol-artifact-1",
  "contractName": "UserManagement",
  "sourceName": "contracts/UserManagement.sol",
  "abi": [
    {
      "inputs": [],
      "stateMutability": "nonpayable",
      "type": "constructor"
    },
    {
      "inputs": [],
      "name": "AccessControlBadConfirmation",
      "type": "error"
    },
    {
      "inputs": [
        {
          "internalType": "address",
          "name": "account",
          "type": "address"
        },
        {
          "internalType": "bytes32",
          "name": "neededRole",
          "type": "bytes32"
        }
      ],
      "name": "AccessControlUnauthorizedAccount",
      "type": "error"
    },
    {
      "anonymous": false,
      "inputs": [
        {
          "indexed": true,
          "internalType": "bytes32",
          "name": "role",
          "type": "bytes32"
        },
        {
          "indexed": true,
          "internalType": "bytes32",
          "name": "previousAdminRole",
          "type": "bytes32"
        },
        {
          "indexed": true,
          "internalType": "bytes32",
          "name": "newAdminRole",
          "type": "bytes32"
        }
      ],
      "name": "RoleAdminChanged",
      "type": "event"
    },
    {
      "anonymous": false,
      "inputs": [
        {
          "indexed": true,
          "internalType": "bytes32",
          "name": "role",
          "type": "bytes32"
        },
        {
          "indexed": true,
          "internalType": "address",
          "name": "account",
          "type": "address"
        },
        {
          "indexed": true,
          "internalType": "address",
          "name": "sender",
          "type": "address"
        }
      ],
      "name": "RoleGranted",
      "type": "event"
    },
    {
      "anonymous": false,
      "inputs": [
        {
          "indexed": true,
          "internalType": "bytes32",
          "name": "role",
          "type": "bytes32"
        },
        {
          "indexed": true,
          "internalType": "address",
          "name": "account",
          "type": "address"
        },
        {
          "indexed": true,
          "internalType": "address",
          "name": "sender",
          "type": "address"
        }
      ],
      "name": "RoleRevoked",
      "type": "event"
    },
    {
      "inputs": [],
      "name": "DEFAULT_ADMIN_ROLE",
      "outputs": [
        {
          "internalType": "bytes32",
          "name": "",
          "type": "bytes32"
        }
      ],
      "stateMutability": "view",
      "type": "function"
    },
    {
      "inputs": [],
      "name": "ISSUER_ROLE",
      "outputs": [
        {
          "internalType": "bytes32",
          "name": "",
          "type": "bytes32"
        }
      ],
      "stateMutability": "view",
      "type": "function"
    },
    {
      "inputs": [],
      "name": "VERIFIER_ROLE",
      "outputs": [
        {
          "internalType": "bytes32",
          "name": "",
          "type": "bytes32"
        }
      ],
      "stateMutability": "view",
      "type": "function"
    },
    {
      "inputs": [
        {
          "internalType": "address",
          "name": "_account",
          "type": "address"
        }
      ],
      "name": "addIssuingAuthority",
      "outputs": [],
      "stateMutability": "nonpayable",
      "type": "function"
    },
    {
      "inputs": [
        {
          "internalType": "address",
          "name": "_account",
          "type": "address"
        }
      ],
      "name": "addVerifyingAuthority",
      "outputs": [],
      "stateMutability": "nonpayable",
      "type": "function"
    },
    {
      "inputs": [
        {
          "internalType": "bytes32",
          "name": "role",
          "type": "bytes32"
        }
      ],
      "name": "getRoleAdmin",
      "outputs": [
        {
          "internalType": "bytes32",
          "name": "",
          "type": "bytes32"
        }
      ],
      "stateMutability": "view",
      "type": "function"
    },
    {
      "inputs": [
        {
          "internalType": "bytes32",
          "name": "role",
          "type": "bytes32"
        },
        {
          "internalType": "address",
          "name": "account",
          "type": "address"
        }
      ],
      "name": "grantRole",
      "outputs": [],
      "stateMutability": "nonpayable",
      "type": "function"
    },
    {
      "inputs": [
        {
          "internalType": "bytes32",
          "name": "role",
          "type": "bytes32"
        },
        {
          "internalType": "address",
          "name": "account",
          "type": "address"
        }
      ],
      "name": "hasRole",
      "outputs": [
        {
          "internalType": "bool",
          "name": "",
          "type": "bool"
        }
      ],
      "stateMutability": "view",
      "type": "function"
    },
    {
      "inputs": [
        {
          "internalType": "address",
          "name": "_account",
          "type": "address"
        }
      ],
      "name": "isIssuingAuthority",
      "outputs": [
        {
          "internalType": "bool",
          "name": "",
          "type": "bool"
        }
      ],
      "stateMutability": "view",
      "type": "function"
    },
    {
      "inputs": [
        {
          "internalType": "address",
          "name": "_account",
          "type": "address"
        }
      ],
      "name": "isVerifyingAuthority",
      "outputs": [
        {
          "internalType": "bool",
          "name": "",
          "type": "bool"
        }
      ],
      "stateMutability": "view",
      "type": "function"
    },
    {
      "inputs": [
        {
          "internalType": "bytes32",
          "name": "role",
          "type": "bytes32"
        },
        {
          "internalType": "address",
          "name": "callerConfirmation",
          "type": "address"
        }
      ],
      "name": "renounceRole",
      "outputs": [],
      "stateMutability": "nonpayable",
      "type": "function"
    },
    {
      "inputs": [
        {
          "internalType": "bytes32",
          "name": "role",
          "type": "bytes32"
        },
        {
          "internalType": "address",
          "name": "account",
          "type": "address"
        }
      ],
      "name": "revokeRole",
      "outputs": [],
      "stateMutability": "nonpayable",
      "type": "function"
    },
    {
      "inputs": [
        {
          "internalType": "bytes4",
          "name": "interfaceId",
          "type": "bytes4"
        }
      ],
      "name": "supportsInterface",
      "outputs": [
        {
          "internalType": "bool",
          "name": "",
          "type": "bool"
        }
      ],
      "stateMutability": "view",
      "type": "function"
    }
  ],
  "bytecode": "0x608060405234801561001057600080fd5b506100246000801b3361002a60201b60201c565b50610199565b600061003c838361012760201b60201c565b61011c57600160008085815260200190815260200160002060000160008473ffffffffffffffffffffffffffffffffffffffff1673ffffffffffffffffffffffffffffffffffffffff16815260200190815260200160002060006101000a81548160ff0219169083151502179055506100b961019160201b60201c565b73ffffffffffffffffffffffffffffffffffffffff168273ffffffffffffffffffffffffffffffffffffffff16847f2f8788117e7eff1d82e926ec794901d17c78024a50270940304540a733656f0d60405160405180910390a460019050610121565b600090505b92915050565b600080600084815260200190815260200160002060000160008373ffffffffffffffffffffffffffffffffffffffff1673ffffffffffffffffffffffffffffffffffffffff16815260200190815260200160002060009054906101000a900460ff16905092915050565b600033905090565b610c8a806101a86000396000f3fe608060405234801561001057600080fd5b50600436106100cf5760003560e01c80637ce414c11161008c578063a217fddf11610066578063a217fddf14610222578063b73832d714610240578063d547741f14610270578063e7705db61461028c576100cf565b80637ce414c1146101b857806382aefa24146101d457806391d14854146101f2576100cf565b806301ffc9a7146100d4578063248a9ca3146101045780632f2ff15d1461013457806336568abe146101505780633bff22991461016c5780636207226414610188575b600080fd5b6100ee60048036038101906100e9919061092c565b6102aa565b6040516100fb9190610974565b60405180910390f35b61011e600480360381019061011991906109c5565b610324565b60405161012b9190610a01565b60405180910390f35b61014e60048036038101906101499190610a7a565b610343565b005b61016a60048036038101906101659190610a7a565b610365565b005b61018660048036038101906101819190610aba565b6103e0565b005b6101a2600480360381019061019d9190610aba565b61045a565b6040516101af9190610974565b60405180910390f35b6101d260048036038101906101cd9190610aba565b61048d565b005b6101dc610507565b6040516101e99190610a01565b60405180910390f35b61020c60048036038101906102079190610a7a565b61052b565b6040516102199190610974565b60405180910390f35b61022a610595565b6040516102379190610a01565b60405180910390f35b61025a60048036038101906102559190610aba565b61059c565b6040516102679190610974565b60405180910390f35b61028a60048036038101906102859190610a7a565b6105cf565b005b6102946105f1565b6040516102a19190610a01565b60405180910390f35b60007f7965db0b000000000000000000000000000000000000000000000000000000007bffffffffffffffffffffffffffffffffffffffffffffffffffffffff1916827bffffffffffffffffffffffffffffffffffffffffffffffffffffffff1916148061031d575061031c82610615565b5b9050919050565b6000806000838152602001908152602001600020600101549050919050565b61034c82610324565b6103558161067f565b61035f8383610693565b50505050565b61036d610784565b73ffffffffffffffffffffffffffffffffffffffff168173ffffffffffffffffffffffffffffffffffffffff16146103d1576040517f6697b23200000000000000000000000000000000000000000000000000000000815260040160405180910390fd5b6103db828261078c565b505050565b6103ed6000801b3361052b565b61042c576040517f08c379a000000000000000000000000000000000000000000000000000000000815260040161042390610b6a565b60405180910390fd5b6104567f114e74f6ea3bd819998f78687bfcb11b140da08e9b7d222fa9c1f1ba1f2aa12282610693565b5050565b60006104867f0ce23c3e399818cfee81a7ab0880f714e53d7672b08df0fa62f2843416e1ea098361052b565b9050919050565b61049a6000801b3361052b565b6104d9576040517f08c379a00000000000000000000000000000000000000000000000000000000081526004016104d090610bfc565b60405180910390fd5b6105037f0ce23c3e399818cfee81a7ab0880f714e53d7672b08df0fa62f2843416e1ea0982610693565b5050565b7f114e74f6ea3bd819998f78687bfcb11b140da08e9b7d222fa9c1f1ba1f2aa12281565b600080600084815260200190815260200160002060000160008373ffffffffffffffffffffffffffffffffffffffff1673ffffffffffffffffffffffffffffffffffffffff16815260200190815260200160002060009054906101000a900460ff16905092915050565b6000801b81565b60006105c87f114e74f6ea3bd819998f78687bfcb11b140da08e9b7d222fa9c1f1ba1f2aa1228361052b565b9050919050565b6105d882610324565b6105e18161067f565b6105eb838361078c565b50505050565b7f0ce23c3e399818cfee81a7ab0880f714e53d7672b08df0fa62f2843416e1ea0981565b60007f01ffc9a7000000000000000000000000000000000000000000000000000000007bffffffffffffffffffffffffffffffffffffffffffffffffffffffff1916827bffffffffffffffffffffffffffffffffffffffffffffffffffffffff1916149050919050565b6106908161068b610784565b61087e565b50565b600061069f838361052b565b61077957600160008085815260200190815260200160002060000160008473ffffffffffffffffffffffffffffffffffffffff1673ffffffffffffffffffffffffffffffffffffffff16815260200190815260200160002060006101000a81548160ff021916908315150217905550610716610784565b73ffffffffffffffffffffffffffffffffffffffff168273ffffffffffffffffffffffffffffffffffffffff16847f2f8788117e7eff1d82e926ec794901d17c78024a50270940304540a733656f0d60405160405180910390a46001905061077e565b600090505b92915050565b600033905090565b6000610798838361052b565b1561087357600080600085815260200190815260200160002060000160008473ffffffffffffffffffffffffffffffffffffffff1673ffffffffffffffffffffffffffffffffffffffff16815260200190815260200160002060006101000a81548160ff021916908315150217905550610810610784565b73ffffffffffffffffffffffffffffffffffffffff168273ffffffffffffffffffffffffffffffffffffffff16847ff6391f5c32d9c69d2a47ea670b442974b53935d1edc7fd64eb21e047a839171b60405160405180910390a460019050610878565b600090505b92915050565b610888828261052b565b6108cb5780826040517fe2517d3f0000000000000000000000000000000000000000000000000000000081526004016108c2929190610c2b565b60405180910390fd5b5050565b600080fd5b60007fffffffff0000000000000000000000000000000000000000000000000000000082169050919050565b610909816108d4565b811461091457600080fd5b50565b60008135905061092681610900565b92915050565b600060208284031215610942576109416108cf565b5b600061095084828501610917565b91505092915050565b60008115159050919050565b61096e81610959565b82525050565b60006020820190506109896000830184610965565b92915050565b6000819050919050565b6109a28161098f565b81146109ad57600080fd5b50565b6000813590506109bf81610999565b92915050565b6000602082840312156109db576109da6108cf565b5b60006109e9848285016109b0565b91505092915050565b6109fb8161098f565b82525050565b6000602082019050610a1660008301846109f2565b92915050565b600073ffffffffffffffffffffffffffffffffffffffff82169050919050565b6000610a4782610a1c565b9050919050565b610a5781610a3c565b8114610a6257600080fd5b50565b600081359050610a7481610a4e565b92915050565b60008060408385031215610a9157610a906108cf565b5b6000610a9f858286016109b0565b9250506020610ab085828601610a65565b9150509250929050565b600060208284031215610ad057610acf6108cf565b5b6000610ade84828501610a65565b91505092915050565b600082825260208201905092915050565b7f4f6e6c792061646d696e2063616e2061737369676e2069737375657220726f6c60008201527f6500000000000000000000000000000000000000000000000000000000000000602082015250565b6000610b54602183610ae7565b9150610b5f82610af8565b604082019050919050565b60006020820190508181036000830152610b8381610b47565b9050919050565b7f4f6e6c792061646d696e2063616e2061737369676e207665726966696572207260008201527f6f6c650000000000000000000000000000000000000000000000000000000000602082015250565b6000610be6602383610ae7565b9150610bf182610b8a565b604082019050919050565b60006020820190508181036000830152610c1581610bd9565b9050919050565b610c2581610a3c565b82525050565b6000604082019050610c406000830185610c1c565b610c4d60208301846109f2565b939250505056fea26469706673582212209144974182373f711b66312b7a8516813fc911163b868e7506b01c71aa7f0b3d64736f6c63430008180033",
  "linkReferences": {},
  "deployedLinkReferences": {}
}