{
  "_format": "hh-sol-artifact-1",
  "contractName": "Verification",
  "sourceName": "contracts/Verification.sol",
  "abi": [
    {
      "inputs": [
        {
          "internalType": "address",
          "name": "_documentRegistryAddress",
          "type": "address"
        }
      ],
      "stateMutability": "nonpayable",
      "type": "constructor"
    },
    {
      "inputs": [
        {
          "internalType": "bytes32",
          "name": "_docId",
          "type": "bytes32"
        },
        {
          "internalType": "bytes32",
          "name": "_documentHash",
          "type": "bytes32"
        }
      ],
      "name": "verifyDocument",
      "outputs": [
        {
          "internalType": "bool",
          "name": "",
          "type": "bool"
        }
      ],
      "stateMutability": "view",
      "type": "function"
    }
  ],
  "bytecode": "0x608060405234801561001057600080fd5b50604051610751380380610751833981810160405281019061003291906100db565b806000806101000a81548173ffffffffffffffffffffffffffffffffffffffff021916908373ffffffffffffffffffffffffffffffffffffffff16021790555050610108565b600080fd5b600073ffffffffffffffffffffffffffffffffffffffff82169050919050565b60006100a88261007d565b9050919050565b6100b88161009d565b81146100c357600080fd5b50565b6000815190506100d5816100af565b92915050565b6000602082840312156100f1576100f0610078565b5b60006100ff848285016100c6565b91505092915050565b61063a806101176000396000f3fe608060405234801561001057600080fd5b506004361061002b5760003560e01c80638fa9a8ce14610030575b600080fd5b61004a600480360381019061004591906101a2565b610060565b60405161005791906101fd565b60405180910390f35b60008060008054906101000a900473ffffffffffffffffffffffffffffffffffffffff1673ffffffffffffffffffffffffffffffffffffffff1663b10d6b41856040518263ffffffff1660e01b81526004016100bc9190610227565b600060405180830381865afa1580156100d9573d6000803e3d6000fd5b505050506040513d6000823e3d601f19601f82011682018060405250810190610102919061053e565b90508060a00151610148576040517f08c379a000000000000000000000000000000000000000000000000000000000815260040161013f906105e4565b60405180910390fd5b8281602001511491505092915050565b6000604051905090565b600080fd5b600080fd5b6000819050919050565b61017f8161016c565b811461018a57600080fd5b50565b60008135905061019c81610176565b92915050565b600080604083850312156101b9576101b8610162565b5b60006101c78582860161018d565b92505060206101d88582860161018d565b9150509250929050565b60008115159050919050565b6101f7816101e2565b82525050565b600060208201905061021260008301846101ee565b92915050565b6102218161016c565b82525050565b600060208201905061023c6000830184610218565b92915050565b600080fd5b6000601f19601f8301169050919050565b7f4e487b7100000000000000000000000000000000000000000000000000000000600052604160045260246000fd5b61029082610247565b810181811067ffffffffffffffff821117156102af576102ae610258565b5b80604052505050565b60006102c2610158565b90506102ce8282610287565b919050565b600080fd5b600080fd5b600080fd5b600067ffffffffffffffff8211156102fd576102fc610258565b5b61030682610247565b9050602081019050919050565b60005b83811015610331578082015181840152602081019050610316565b60008484015250505050565b600061035061034b846102e2565b6102b8565b90508281526020810184848401111561036c5761036b6102dd565b5b610377848285610313565b509392505050565b600082601f830112610394576103936102d8565b5b81516103a484826020860161033d565b91505092915050565b6000815190506103bc81610176565b92915050565b600073ffffffffffffffffffffffffffffffffffffffff82169050919050565b60006103ed826103c2565b9050919050565b6103fd816103e2565b811461040857600080fd5b50565b60008151905061041a816103f4565b92915050565b6000819050919050565b61043381610420565b811461043e57600080fd5b50565b6000815190506104508161042a565b92915050565b61045f816101e2565b811461046a57600080fd5b50565b60008151905061047c81610456565b92915050565b600060c0828403121561049857610497610242565b5b6104a260c06102b8565b9050600082015167ffffffffffffffff8111156104c2576104c16102d3565b5b6104ce8482850161037f565b60008301525060206104e2848285016103ad565b60208301525060406104f68482850161040b565b604083015250606061050a8482850161040b565b606083015250608061051e84828501610441565b60808301525060a06105328482850161046d565b60a08301525092915050565b60006020828403121561055457610553610162565b5b600082015167ffffffffffffffff81111561057257610571610167565b5b61057e84828501610482565b91505092915050565b600082825260208201905092915050565b7f446f63756d656e74206973206e6f742061637469766500000000000000000000600082015250565b60006105ce601683610587565b91506105d982610598565b602082019050919050565b600060208201905081810360008301526105fd816105c1565b905091905056fea2646970667358221220365b95e28b4b6e71dc770d51958999186b4ff59111086976689d22693d3e0dda64736f6c63430008180033",
  "linkReferences": {},
  "deployedLinkReferences": {}
}